:02000000512F7E
:1000080070082000A7007108A6007208A5007308F0
:10001800A4007408A3007508A2007608A100803126
:10002800111C1A281110A80A0319A90A131E32282C
:100038002600131C3228200013122100131204304A
:1000480026009300EB237008B6007108B700720809
:10005800B8007308B9002100131657282000131E92
:100068005728131221001312053026009300EB23A2
:100078007008AE007108AF007208B0007308B100D4
:100088003608AE023708AF3B3808B03B3908B13BF9
:1000980021001316EB237008AA007108AB00720840
:1000A800AC007308AD002000931E702826001A1CAF
:1000B80070282000931221009312043026009A0021
:1000C800EB237008C2007108C3007208C4007308EB
:1000D800C5002100931695282000931E9528931299
:1000E80021009312053026009A00EB237008B20015
:1000F8007108B3007208B4007308B5004208B20270
:100108004308B33B4408B43B4508B53B210093166C
:10011800EB237008BE007108BF007208C0007308A6
:10012800C10020002708F0002608F1002508F20089
:100138002408F3002308F4002208F5002108F6003B
:020148000900AC
:10014A007408F8027508031C750FF9027608031C77
:10015A00760FFA027708031C770FFB02F30D0730BC
:10016A00FC00730DF80DF90DFA0DFB0D7408731CE4
:10017A00CC28F8027508031C750FF9027608031CCF
:10018A00760FFA027708031C770FFB02D928F807C3
:10019A0075080318750FF90776080318760FFA071A
:1001AA0077080318770FFB07F30DFC0BB628720DBF
:1001BA00F80DF90DFA0DFB0D7408731CF228F802FC
:1001CA007508031C750FF9027608031C760FFA02EC
:1001DA007708031C770FFB02FF28F8077508031836
:1001EA00750FF90776080318760FFA0777080318C8
:1001FA00770FFB07F20D0730FC00720DF80DF90DB1
:10020A00FA0DFB0D7408721C1829F8027508031CF4
:10021A00750FF9027608031C760FFA027708031C99
:10022A00770FFB022529F80775080318750FF907D8
:10023A0076080318760FFA0777080318770FFB0773
:10024A00F20DFC0B0229710DF80DF90DFA0DFB0DDB
:10025A007408721C3E29F8027508031C750FF9020E
:10026A007608031C760FFA027708031C770FFB0245
:10027A004B29F80775080318750FF907760803184C
:10028A00760FFA0777080318770FFB07F10D073087
:10029A00FC00710DF80DF90DFA0DFB0D7408711CB7
:1002AA006429F8027508031C750FF9027608031C05
:1002BA00760FFA027708031C770FFB027129F807F9
:1002CA0075080318750FF90776080318760FFA07E9
:1002DA0077080318770FFB07F10DFC0B4E29700DF9
:1002EA00F80DF90DFA0DFB0D7408711C8A29F80234
:1002FA007508031C750FF9027608031C760FFA02BB
:10030A007708031C770FFB029729F807750803186B
:10031A00750FF90776080318760FFA077708031896
:10032A00770FFB07F00D0730FC00700DF80DF90D83
:10033A00FA0DFB0D7408701CB029F8027508031C2D
:10034A00750FF9027608031C760FFA027708031C68
:10035A00770FFB02BD29F80775080318750FF9070F
:10036A0076080318760FFA0777080318770FFB0742
:10037A00F00DFC0B9A297018D0297408F807750833
:10038A000318750FF90776080318760FFA07770826
:08039A000318770FFB070800B0
:1003A200FB09FA09F909F809F80A0319F90A031904
:0803B200FA0A0319FB0A080016
:1003BA00710DF80DF90D7408F8027508031C750F14
:1003CA00F902F00DF10D0F30FC00710DF80DF90D69
:1003DA007408701CF629F8027508031C750FF902D7
:1003EA00FB29F80775080318750FF907F00DF10DC9
:1003FA00FC0BEA297018072A7408F807750803180D
:08040A00750FF907000008005E
:1004120020002230FC00F801F901FA01FB01FC0383
:1004220003193E2A0310FB0CFA0CF90CF80CF30C1E
:10043200F20CF10CF00C031C102AFC030319302AF5
:100442007408F80775080318750FF907760803187A
:10045200760FFA0777080318770FFB07142A740838
:10046200F80775080318750FF90776080318760F51
:0C047200FA0777080318770FFB07080053
:10047E007408003A031D582A7508003A031D582ABD
:10048E007608003A031D582A7708003A031D582AA9
:10049E00FF30F000FF30F100FF30F2007F30F3004C
:1004AE00F02A2000FC01F71BFC0AFD01FB01FA01FA
:1004BE00F901F80173087204710470040319EB2A30
:1004CE0073087706A000A01BFD09F71F792AF4090F
:1004DE00F509F609F709F40A0319F50A0319F60ADC
:1004EE000319F70AF31F862AF009F109F209F30935
:1004FE00F00A0319F10A0319F20A0319F30A730831
:10050E007704A000A01BA72AA520FC1BC42AFD1F50
:10051E00EB2AF009F109F209F309F00A0319F10ABD
:10052E000319F20A0319F30AF809F909FA09FB0982
:10053E00F80A0319F90A0319FA0A0319FB0AEB2A36
:10054E00F71FBE2AF31BB82A7308FB007208FA00C5
:10055E007108F9007008F800F301F201F101F001E1
:10056E008E2AF301F201F101F001F00A0034F309D1
:10057E00F209F109F009FC178B2AF80A0319F90A96
:10058E000319FA0A0319FB0A74087802031D8E2A4E
:10059E0075087902031D8E2A76087A02031D8E2AAB
:1005AE0077087B02031D8E2AFB01FA01F901F8017F
:1005BE00F00A0319F10A0319F20A0319F30AF31FD9
:1005CE008E2AA0012016FF34A0017C1CEF2AD12117
:0405DE00003E0800D3
:1005E200FF302000BA00FF30BB00FF30BC00FF30FC
:0E05F200BD00F03021009E009D011D14080088
:10060000003020005706031D072B01305606031D3E
:10061000242B250016109610003020005906031DCB
:10062000132B01305806031D182B0E12250016142B
:10063000003020005906031D1F2B02305806031DF1
:10064000242B8E1225009614003020005706031D1F
:100650002B2B02305606031D482B25001D109D1024
:10066000003020005906031D372B01305806031DAA
:100670003C2B0C1225001D14003020005906031DD0
:10068000432B02305806031D482B8C1225009D1465
:02069000080060
:1006920020005608F4005708F5005808F6005908DB
:1006A200F7005A08F4025B08F53B5C08F63B5D086C
:1006B200F73B6608F0006708F1006808F200690875
:1006C200F3006208F0026308F13B6408F23B65083C
:1006D200F33B09225E08F4005F08F5006008F600AB
:1006E2006108F7005A08F4025B08F53B5C08F63B28
:1006F2005D08F73B3F226208F0076308F13D64089A
:08070200F23D6508F33D08001B
:10070A007408003A031D922B7508003A031D922BB8
:10071A00FF30F0007F30F100EA2B2000FD01F901E3
:10072A00F801710870040319003471087506FA009B
:10073A00FA1BFD09FB01F51FA72BF409F509F40AB9
:10074A000319F50AF11FAE2BF009F109F00A031992
:10075A00F10A71087504FA00FA1BC32BDD217B1814
:10076A00D62BFD1F0034F009F109F00A0319F10A2A
:10077A00F809F909F80A0319F90A0034F51FD22B06
:10078A00F11BCE2B7108F9007008F800F101F00195
:10079A00B62BF101F001F00A0034F109F009FB0A65
:1007AA00B32BF80A0319F90A74087802031DB62B49
:1007BA0075087902031DB62BF901F801F00A03192D
:0C07CA00F10AF11FB62B0000FF340800FC
:1007D60020001708F100F00116087004F5007108F2
:1007E600F6000030F6042908F3002808F200F001AC
:1007F600F1017508F0077608F13D0030F23DF33D52
:020806000800E8
:10080800003020005706031D0B2C01305606031D2F
:10081800102C580825009100003020005706031DB1
:10082800172C02305606031D1C2C5808250098006A
:020838000800B6
:10083A002000FB01FA01F9018030F800F10CF00CFC
:10084A00031C302C7408F90775080318750FFA078A
:10085A000318FB0A0310F01F382C7408FA077508EE
:10086A000318750FFB07FB0CFA0CF90CF80C031CA8
:10087A00232C7B08F3007A08F2007908F100780843
:04088A00F000080072
:10088E0001302000CE000030CF002E08CA002F0805
:10089E00CB003208CC003308CD002E08D6002F082E
:1008AE00D700D801D9014C30DA000430DB00DC016E
:1008BE00DD016C30DE000730DF00E001E1010130C8
:1008CE00E200FF30E300FF30E400E500FF30E60019
:1008DE00E701E801E90149237008CA007108CB005D
:1008EE004C08D6004D08D700D801D9014C30DA009B
:1008FE000430DB00DC01DD016C30DE000730DF0090
:10090E00E001E1010130E200FF30E300FF30E400DE
:10091E00E500FF30E600E701E801E9014923700830
:10092E00D2007108D3007208D4007308D5005208A3
:10093E00CC005308CD004A085207F0004B08533D37
:10094E00F1004E08F4004F08F5001D247008D00089
:10095E007108D1005008C6005108C7004A0852025B
:10096E00F0004B08533BF1004E08F4004F08F50021
:10097E001D247008C8007108C9008030F000803056
:10098E0051067002031DCD2C5008FF3C031CDB2CBE
:10099E008030F000803049067002031DD82C4808C4
:1009AE00FF3C031CDB2C1E2D80304906F0008030EE
:1009BE0047067002031DE52C460848020318F42C66
:1009CE00FF30F400F5014608F0004708F1008523DA
:1009DE007008CE007108CF00002DFF30F400F50135
:1009EE004808F0004908F10085237008CE00710810
:1009FE00CF004A084C07F0004B084D3DF1004E0861
:100A0E00F4004F08F5001D247008C6007108C700D9
:100A1E004A084C02F0004B084D3BF1004E08F40022
:100A2E004F08F5001D247008C8007108C9008030F9
:100A3E004706F0008030FF3A7002031D282D01306A
:100A4E004602031C372D80304906F0008030FF3AF5
:100A5E007002031D342D01304802031C372D822DE8
:100A6E0080304706F000803049067002031D412D8C
:100A7E00480846020318542D4608003CF00047086B
:100A8E00031C013EF101F102FF30F400F501852354
:100A9E007008CE007108CF00642D4808003CF000AD
:100AAE004908031C013EF101F102FF30F400F5018B
:100ABE0085237008CE007108CF004A084C07F0005D
:100ACE004B084D3DF1004E08F4004F08F5001D2473
:100ADE007008C6007108C7004A084C02F0004B08A7
:100AEE004D3BF1004E08F4004F08F5001D24700830
:100AFE00C8007108C9004608D6004708D700003064
:100B0E00D71BFF30D800D9000130DA00FF30DB00F0
:100B1E00FF30DC00DD00FF30DE00DF01E001E1012F
:100B2E000130E200FF30E300FF30E400E500FF306B
:100B3E00E600E701E801E90149237008C6007108E3
:100B4E00C7004808D6004908D7000030D71BFF3031
:100B5E00D800D9000130DA00FF30DB00FF30DC00B6
:100B6E00DD00FF30DE00DF01E001E1010130E200D7
:100B7E00FF30E300FF30E400E500FF30E600E70160
:100B8E00E801E90149237008C8007108C9008030E6
:100B9E004706F0008030FF3A7002031DD82D013059
:100BAE0046020318DE2D0130C600FF30C70080302C
:100BBE00F000803047067002031DE72D4608FF3C0B
:100BCE000318EC2DFF30C600C70180304906F00037
:100BDE008030FF3A7002031DF62D013048020318D3
:100BEE00FC2D0130C800FF30C9008030F00080308D
:100BFE0049067002031D052E4808FF3C03180A2EF5
:100C0E00FF30C800C90180304706F0008030700206
:100C1E00031D132E0A3046020318222E7F30F000D9
:100C2E00803047067002031D1E2E4608F63C031840
:100C3E00222EC601C70180304906F00080307002B6
:100C4E00031D2B2E0A30480203183A2E7F30F00077
:100C5E00803049067002031D362E4808F63C0318F4
:100C6E003A2EC801C90180304706F000803070026C
:100C7E00031D432E00304602031C592E0130D600B0
:100C8E000030D7000230D8000030D90000230130E8
:100C9E002000D6000030D7004608D8004708D900FB
:100CAE000424752E20004608003CC6004708031C8D
:100CBE00013EC701C7020130D6000030D700013017
:100CCE00D8000030D900002301302000D6000030BB
:100CDE00D7004608D8004708D900042480302000E9
:100CEE004906F00080307002031D7F2E003048024E
:100CFE00031C952E0230D6000030D7000230D800EB
:100D0E000030D900002302302000D6000030D7007A
:100D1E004808D8004908D9000424B12E20004808FC
:100D2E00003CC8004908031C013EC901C90202303B
:100D3E00D6000030D7000130D8000030D900002393
:100D4E0002302000D6000030D7004808D8004908ED
:060D5E00D9000424080086
:100D6400EB237008F4007108F5007208F6007308AC
:100D7400F7002A08F4022B08F53B2C08F63B2D0853
:100D8400F73B7708003C031DD12E76084C3C031D2D
:100D9400D12E75084B3C031DD12E7408403C031C16
:100DA400F52EEB237008F4007108F5007208F600C4
:100DB4007308F7003E08F4023F08F53B4008F63B91
:100DC4004108F73B7708003C031DF22E76084C3CA3
:100DD400031DF22E75084B3C031DF22E7408403C93
:100DE400031CF52EFA2E0130F0000030F100FC2E29
:060DF400F001F10108000E
:100DFA0020009812181698131813181421001114A9
:080E0A00200096019701080089
:100E120020009C01FF309B0025009E101E1016141E
:100E22009614161196111616FF3091003C3093005D
:100E32009E111E111D149D141D119D111D16FF30B2
:0E0E420098003C309A00043020009C0008000C
:100E500012001E00F003031D282FF103031D282F8D
:020E6000080088
:100E62002200910193019E141E1423008C01013073
:100E72008E00F1220C108C100C158C150C128C1299
:100E82000E148E140E158E150E128E128B170B1752
:100E92001316931605302600930005309A000800B9
:100EA2002000A801A90172302100990031270927E9
:100EB200FD2620000C10B226700871040319722F4F
:100EC2000C140130D6000030D700D801D901042417
:100ED20002302000D6000030D700D801D901042406
:100EE2005C2F47240330FB000830FC007730FD0004
:100EF200FD0B792FFC0B792FFB0B792F5A2F802FAB
:020000040001F9
:04000E00E43F1315A3
:00000001FF
