:04000000883100281B
:1000080070082000A7007108A6007208A5007308F0
:10001800A4007408A3007508A2007608A100803126
:10002800111C1A281110AA0A0319AB0A131E322828
:100038002600131C3228200013122100131204304A
:10004800260093003C247008C7007108C800720895
:10005800C9007308CA002100131657282000131E70
:1000680057281312210013120530260093003C2450
:100078007008B2007108B3007208B4007308B500C4
:100088004708B2024808B33B4908B43B4A08B53BA5
:10009800210013163C247008C2007108C3007208BE
:1000A800C4007308C5002000931E702826001A1C7F
:1000B80070282000931221009312043026009A0021
:1000C8003C247008BE007108BF007208C0007308A5
:1000D800C1002100931695282000931E952893129D
:1000E80021009312053026009A003C247008B600BF
:1000F8007108B7007208B8007308B9003E08B60264
:100108003F08B73B4008B83B4108B93B210093166C
:100118003C247008BA007108BB007208BC00730860
:10012800BD0020002708F0002608F1002508F2008D
:100138002408F3002308F4002208F5002108F6003B
:020148000900AC
:10014A007408F8027508031C750FF9027608031C77
:10015A00760FFA027708031C770FFB02F30D0730BC
:10016A00FC00730DF80DF90DFA0DFB0D7408731CE4
:10017A00CC28F8027508031C750FF9027608031CCF
:10018A00760FFA027708031C770FFB02D928F807C3
:10019A0075080318750FF90776080318760FFA071A
:1001AA0077080318770FFB07F30DFC0BB628720DBF
:1001BA00F80DF90DFA0DFB0D7408731CF228F802FC
:1001CA007508031C750FF9027608031C760FFA02EC
:1001DA007708031C770FFB02FF28F8077508031836
:1001EA00750FF90776080318760FFA0777080318C8
:1001FA00770FFB07F20D0730FC00720DF80DF90DB1
:10020A00FA0DFB0D7408721C1829F8027508031CF4
:10021A00750FF9027608031C760FFA027708031C99
:10022A00770FFB022529F80775080318750FF907D8
:10023A0076080318760FFA0777080318770FFB0773
:10024A00F20DFC0B0229710DF80DF90DFA0DFB0DDB
:10025A007408721C3E29F8027508031C750FF9020E
:10026A007608031C760FFA027708031C770FFB0245
:10027A004B29F80775080318750FF907760803184C
:10028A00760FFA0777080318770FFB07F10D073087
:10029A00FC00710DF80DF90DFA0DFB0D7408711CB7
:1002AA006429F8027508031C750FF9027608031C05
:1002BA00760FFA027708031C770FFB027129F807F9
:1002CA0075080318750FF90776080318760FFA07E9
:1002DA0077080318770FFB07F10DFC0B4E29700DF9
:1002EA00F80DF90DFA0DFB0D7408711C8A29F80234
:1002FA007508031C750FF9027608031C760FFA02BB
:10030A007708031C770FFB029729F807750803186B
:10031A00750FF90776080318760FFA077708031896
:10032A00770FFB07F00D0730FC00700DF80DF90D83
:10033A00FA0DFB0D7408701CB029F8027508031C2D
:10034A00750FF9027608031C760FFA027708031C68
:10035A00770FFB02BD29F80775080318750FF9070F
:10036A0076080318760FFA0777080318770FFB0742
:10037A00F00DFC0B9A297018D0297408F807750833
:10038A000318750FF90776080318760FFA07770826
:08039A000318770FFB070800B0
:1003A200FB09FA09F909F809F80A0319F90A031904
:0803B200FA0A0319FB0A080016
:1003BA002000620823009100920195131513151469
:0603CA001308F00008001A
:1003D0007408003A031D012A7508003A031D012A1A
:1003E0007608003A031D012A7708003A031D012A06
:1003F000FF30F000FF30F100FF30F2007F30F300FB
:10040000992A2000FC01F71BFC0AFD01FB01FA01FF
:10041000F901F80173087204710470040319942A35
:1004200073087706A000A01BFD09F71F222AF40914
:10043000F509F609F709F40A0319F50A0319F60A8A
:100440000319F70AF31F2F2AF009F109F209F3093A
:10045000F00A0319F10A0319F20A0319F30A7308DF
:100460007704A000A01B502AA520FC1B6D2AFD1FAD
:10047000942AF009F109F209F309F00A0319F10AC3
:100480000319F20A0319F30AF809F909FA09FB0931
:10049000F80A0319F90A0319FA0A0319FB0A942A3C
:1004A000F71F672AF31B612A7308FB007208FA0022
:1004B0007108F9007008F800F301F201F101F00190
:1004C000372AF301F201F101F001F00A0034F309D7
:1004D000F209F109F009FC17342AF80A0319F90A9C
:1004E0000319FA0A0319FB0A74087802031D372A54
:1004F00075087902031D372A76087A02031D372A08
:1005000077087B02031D372AFB01FA01F901F80184
:10051000F00A0319F10A0319F20A0319F30AF31F87
:10052000372AA0012016FF34A0017C1C982AD12173
:04053000003E080081
:1005340020002230FC00F801F901FA01FB01FC0360
:100544000319CF2A0310FB0CFA0CF90CF80CF30C6A
:10055400F20CF10CF00C031CA12AFC030319C12AB0
:100564007408F80775080318750FF9077608031857
:10057400760FFA0777080318770FFB07A52A740884
:10058400F80775080318750FF90776080318760F2E
:0C059400FA0777080318770FFB07080030
:1005A0002000F801F9011030FC00710DF80DF90D73
:1005B0007408F8027508031C750FF9020318E72A7E
:1005C0007408F80775080318750FF9070310F00D84
:0805D000F10DFC0BD52A080017
:1005D800FF302000CB00FF30CC00FF30CD00FF30D3
:0E05E800CE00F03021009E009D011D14080081
:1005F6002000E201DD2170082000CF000130E2007A
:10060600DD2170082000C6007008A900A8014F0867
:10061600A8040030A9040230E200DD2170082000A1
:10062600CF000330E200DD2170082000C60070080C
:10063600AF00AE014F08AE040030AF040430E20054
:10064600DD2170082000CF000530E200DD217008B2
:100656002000C6007008AD00AC014F08AC040030A5
:10066600AD040630E200DD2170082000CF0007301F
:10067600E200DD2170082000C6007008B100B0015C
:0A0686004F08B0040030B104080072
:10069000FA30F400F50120005E08F0005F08F10078
:1006A000D0227008DE007108DF00E001E1015F0880
:1006B0006102031D5D2B5E08600203187D2B8C1404
:1006C0000330FB000830FC007730FD00FD0B662B8B
:1006D000FC0B662BFB0B662B8C100330FB000830E9
:1006E000FC007730FD00FD0B732BFC0B732BFB0B19
:0C06F000732BE00A0319E10A572B0800E5
:1006FC0020005E0823009100920120005F08230077
:10070C0093001513951315150B08F0008B1355302A
:10071C009600AA3096009514F01B962B8B13972BF2
:0C072C008B171511951C9B2B982B0800B7
:10073800003020005F06031DA32B01305E06031D59
:10074800A82B600825009100003020005F06031DDB
:10075800AF2B02305E06031DB42B600825009800FD
:02076800080087
:10076A00003020005F06031DBC2B01305E06031D0E
:10077A00D92B250016109610003020006106031DA3
:10078A00C82B01306006031DCD2B0E12250016144E
:10079A00003020006106031DD42B02306006031DC1
:1007AA00D92B8E1225009614003020005F06031DF7
:1007BA00E02B02305E06031DFD2B25001D109D1047
:1007CA00003020006106031DEC2B01306006031D7A
:1007DA00F12B0C1225001D14003020006106031DA8
:1007EA00F82B02306006031DFD2B8C1225009D1488
:0207FA000800F5
:1007FC0021002008F4002108F5002208F600230847
:10080C00F7002408F4022508F53B2608F63B2708D8
:10081C00F73B3008F0003108F1003208F2003308E1
:10082C00F3002C08F0022D08F13B2E08F23B2F08A8
:10083C00F33B9A2221002808F4002908F5002A0825
:10084C00F6002B08F7002408F4022508F53B2608CF
:10085C00F63B2708F73BE82121002C08F0072D0870
:0C086C00F13D2E08F23D2F08F33D08007E
:1008780020001708F100F00116087004F50071084F
:10088800F6000030F6042B08F3002A08F200F00105
:10089800F1017508F0077608F13D0030F23DF33DAF
:0208A800080046
:1008AA0020003608D4003708D5003808D6003908A1
:1008BA00D70032082100A000200033082100A1003F
:1008CA00200034082100A200200035082100A300DE
:1008DA00200028082100A400200029082100A500E2
:1008EA00A601A70120002C082100A80020002D083D
:1008FA002100A900AA01AB010130AC00FF30AD0014
:10090A00FF30AE00AF00FF30B000B101B201B30159
:10091A00FE2370082000D0007108D100540821007D
:10092A00A000200055082100A1002000560821003F
:10093A00A200200057082100A30020002E08210051
:10094A00A40020002F082100A500A601A70120006D
:10095A0030082100A800200031082100A900AA01BE
:10096A00AB010130AC00FF30AD00FF30AE00AF008C
:10097A00FF30B000B101B201B301FE2370082000BC
:10098A00D2007108D30080305106F0008030FF3A5F
:10099A007002031DD22C013050020318D82C0130EA
:1009AA00D000FF30D1008030F00080305106700254
:1009BA00031DE12C5008FF3C0318E62CFF30D00041
:1009CA00D10180305306F0008030FF3A7002031DD7
:1009DA00F02C013052020318F62C0130D200FF30FD
:1009EA00D3008030F000803053067002031DFF2CC4
:1009FA005208FF3C0318042DFF30D200D301803087
:100A0A005106F00080307002031D0D2D0A3050028D
:100A1A0003181C2D7F30F000803051067002031D30
:100A2A00182D5008F63C03181C2DD001D101803036
:100A3A005306F00080307002031D252D0A30520241
:100A4A000318342D7F30F000803053067002031DE6
:100A5A00302D5208F63C0318342DD201D3018030D0
:100A6A005106F00080307002031D3D2D0030500207
:100A7A00031C532D0130DE000030DF000230E0009D
:100A8A000030E100B52301302000DE000030DF0035
:100A9A005008E0005108E1009C236B2D0130200032
:100AAA00DE000030DF000130E0000030E100B52355
:100ABA0001302000DE000030DF005008003CE0007A
:100ACA005108031C013EE101E1029C238030200011
:100ADA005306F00080307002031D752D003052025B
:100AEA00031C8B2D0230DE000030DF000230E000F4
:100AFA000030E100B52302302000DE000030DF00C4
:100B0A005208E0005308E1009C23A32D0230200084
:100B1A00DE000030DF000130E0000030E100B523E4
:100B2A0002302000DE000030DF005208003CE00006
:0E0B3A005308031C013EE101E1029C23080068
:100B48003C247008F4007108F5007208F600730878
:100B5800F7004208F4024308F53B4408F63B450811
:100B6800F73B7708003C031DC32D76081E3C031D88
:100B7800C32D7508843C031DC32D7408803C031CD9
:100B8800E82D3C247008F4007108F5007208F6009E
:100B98007308F7003A08F4023B08F53B3C08F63BBB
:100BA8003D08F73B7708003C031DE42D76081E3C02
:100BB800031DE42D7508843C031DE42D7408803C56
:100BC800031CE82DF001EA2D0130F0000030F1009F
:020BD800080013
:100BDA0020302000D4004E30D5002030D6004E30D0
:100BEA00D700D001D101D201D3013C247008DA0028
:100BFA007108DB007208DC007308DD008C143C24E9
:100C0A007008F4007108F5007208F6007308F7001E
:100C1A005A08F4025B08F53B5C08F63B5D08F73BB3
:100C2A0000307702031D232E1E307602031D232E69
:100C3A0084307502031D232E803074020318462E59
:100C4A003208D8003308D90055083302031D2F2E65
:100C5A00540832020318352E5808D4005908D50012
:100C6A003608D8003708D90057083702031D3F2E27
:100C7A00560836020318452E5808D6005908D700D8
:100C8A00042EFF305405F3007308CF005508F00016
:100C9A00F101FF307005C600DE017308DF007E2314
:100CAA001A30FC00F830FD00FD0B592EFC0B592EB2
:100CBA00000001302000DE004608DF007E231A30E3
:100CCA00FC00F830FD00FD0B682EFC0B682E0000BE
:100CDA00FF3020005605F3007308CF005708F000D4
:100CEA00F101FF307005C6000230DE007308DF0034
:100CFA007E231A30FC00F830FD00FD0B822EFC0B1F
:100D0A00822E000003302000DE004608DF007E232A
:100D1A001A30FC00F830FD00FD0B912EFC0B912ED1
:100D2A00000040302000DE000630DF0048233C246B
:100D3A007008DA007108DB007208DC007308DD0055
:100D4A008C143C247008F4007108F5007208F6004F
:100D5A007308F7005A08F4025B08F53B5C08F63B97
:100D6A005D08F73B00307702031DC52E1E30760260
:100D7A00031DC52E84307502031DC52E80307402F2
:100D8A000318E92E20003208D8003308D9003308A6
:100D9A005102031DD22E320850020318D82E5808C9
:100DAA00D0005908D1003608D8003708D9003708CA
:100DBA005302031DE22E360852020318E82E580881
:100DCA00D2005908D300A62E2000FF305005F300A8
:100DDA007308CF005108F000F101FF307005C6001A
:100DEA000430DE007308DF007E231A30FC00F8307E
:100DFA00FD00FD0BFE2EFC0BFE2E00000530200030
:100E0A00DE004608DF007E231A30FC00F830FD00C1
:100E1A00FD0B0D2FFC0B0D2F0000FF30200052059B
:100E2A00F3007308CF005308F000F101FF3070059A
:100E3A00C6000630DE007308DF007E231A30FC008D
:100E4A00F830FD00FD0B272FFC0B272F0000073081
:100E5A002000DE004608DF007E231A30FC00F8304E
:100E6A00FD00FD0B362FFC0B362F00004030200012
:0E0E7A00DE000630DF0048238C10FB2208004B
:100E880012001E00F003031D442FF103031D442F1D
:020E9800080050
:100E9A0020009C01FF309B0025009E101E10161496
:100EAA009614161196111616FF3091003C309300D5
:100EBA009E111E111D149D141D119D111D16FF302A
:0E0ECA0098003C309A00043020009C00080084
:100ED80020009812181698131813181421001114CA
:080EE8002000960197010800AB
:100EF0002200910193019E141E1423008C010130E5
:100F00008E00EC220C108C100C158C150C128C120F
:100F10000E148E140E158E150E128E128B170B17C3
:100F20001316931605302600930005309A0008002A
:101000004C302000A8000430A900AA01AB016C30CC
:10101000AC000730AD004C30AE000430AF006C3097
:10102000B0000730B100723021009900803178277C
:10103000883180314D27883180316C2788310430E8
:10104000FB000C30FC003330FD00FD0B2528FC0BB1
:101050002528FB0B2528000000008C193228803140
:10106000ED25883120000C108031A42588317008CE
:101070007104031950280C140130DE000030DF0029
:10108000E001E10180319C23883102302000DE0044
:101090000030DF00E001E10180319C2388313428F9
:1010A0008031552488310330FB000830FC00773054
:1010B000FD00FD0B5928FC0B5928FB0B5928322841
:0210C0006028A6
:020000040001F9
:04000E00A4391315E9
:00000001FF
