:02000000572D7A
:1000080070082000A7007108A6007208A5007308F0
:10001800A4007408A3007508A2007608A100803126
:10002800111C1A281110A80A0319A90A131E32282C
:100038002600131C3228200013122100131204304A
:1000480026009300C5227008BE007108BF00720820
:10005800C0007308C1002100131657282000131E82
:100068005728131221001312053026009300C522C9
:100078007008AA007108AB007208AC007308AD00E4
:100088003E08AA023F08AB3B4008AC3B4108AD3BE9
:1000980021001316C5227008AE007108AF0072085F
:1000A800B0007308B1002000931E702826001A1CA7
:1000B80070282000931221009312043026009A0021
:1000C800C5227008BA007108BB007208BC0073082A
:1000D800BD002100931695282000931E95289312A1
:1000E80021009312053026009A00C5227008B2003C
:1000F8007108B3007208B4007308B5003A08B20278
:100108003B08B33B3C08B43B3D08B53B2100931684
:10011800C5227008B6007108B7007208B8007308E5
:10012800B90020002708F0002608F1002508F20091
:100138002408F3002308F4002208F5002108F6003B
:020148000900AC
:10014A007408F8027508031C750FF9027608031C77
:10015A00760FFA027708031C770FFB02F30D0730BC
:10016A00FC00730DF80DF90DFA0DFB0D7408731CE4
:10017A00CC28F8027508031C750FF9027608031CCF
:10018A00760FFA027708031C770FFB02D928F807C3
:10019A0075080318750FF90776080318760FFA071A
:1001AA0077080318770FFB07F30DFC0BB628720DBF
:1001BA00F80DF90DFA0DFB0D7408731CF228F802FC
:1001CA007508031C750FF9027608031C760FFA02EC
:1001DA007708031C770FFB02FF28F8077508031836
:1001EA00750FF90776080318760FFA0777080318C8
:1001FA00770FFB07F20D0730FC00720DF80DF90DB1
:10020A00FA0DFB0D7408721C1829F8027508031CF4
:10021A00750FF9027608031C760FFA027708031C99
:10022A00770FFB022529F80775080318750FF907D8
:10023A0076080318760FFA0777080318770FFB0773
:10024A00F20DFC0B0229710DF80DF90DFA0DFB0DDB
:10025A007408721C3E29F8027508031C750FF9020E
:10026A007608031C760FFA027708031C770FFB0245
:10027A004B29F80775080318750FF907760803184C
:10028A00760FFA0777080318770FFB07F10D073087
:10029A00FC00710DF80DF90DFA0DFB0D7408711CB7
:1002AA006429F8027508031C750FF9027608031C05
:1002BA00760FFA027708031C770FFB027129F807F9
:1002CA0075080318750FF90776080318760FFA07E9
:1002DA0077080318770FFB07F10DFC0B4E29700DF9
:1002EA00F80DF90DFA0DFB0D7408711C8A29F80234
:1002FA007508031C750FF9027608031C760FFA02BB
:10030A007708031C770FFB029729F807750803186B
:10031A00750FF90776080318760FFA077708031896
:10032A00770FFB07F00D0730FC00700DF80DF90D83
:10033A00FA0DFB0D7408701CB029F8027508031C2D
:10034A00750FF9027608031C760FFA027708031C68
:10035A00770FFB02BD29F80775080318750FF9070F
:10036A0076080318760FFA0777080318770FFB0742
:10037A00F00DFC0B9A297018D0297408F807750833
:10038A000318750FF90776080318760FFA07770826
:08039A000318770FFB070800B0
:1003A200FB09FA09F909F809F80A0319F90A031904
:0803B200FA0A0319FB0A080016
:1003BA007408003A031DF6297508003A031DF62948
:1003CA007608003A031DF6297708003A031DF62934
:1003DA00FF30F000FF30F100FF30F2007F30F30011
:1003EA008E2A2000FC01F71BFC0AFD01FB01FA0121
:1003FA00F901F80173087204710470040319892A57
:10040A0073087706A000A01BFD09F71F172AF40935
:10041A00F509F609F709F40A0319F50A0319F60AA0
:10042A000319F70AF31F242AF009F109F209F3095B
:10043A00F00A0319F10A0319F20A0319F30A7308F5
:10044A007704A000A01B452AA520FC1B622AFD1FD9
:10045A00892AF009F109F209F309F00A0319F10AE4
:10046A000319F20A0319F30AF809F909FA09FB0947
:10047A00F80A0319F90A0319FA0A0319FB0A892A5D
:10048A00F71F5C2AF31B562A7308FB007208FA004E
:10049A007108F9007008F800F301F201F101F001A6
:1004AA002C2AF301F201F101F001F00A0034F309F8
:1004BA00F209F109F009FC17292AF80A0319F90ABD
:1004CA000319FA0A0319FB0A74087802031D2C2A75
:1004DA0075087902031D2C2A76087A02031D2C2A34
:1004EA0077087B02031D2C2AFB01FA01F901F801A6
:1004FA00F00A0319F10A0319F20A0319F30AF31F9E
:10050A002C2AA0012016FF34A0017C1C8D2AD1219F
:04051A00003E080097
:10051E0020002230FC00F801F901FA01FB01FC0376
:10052E000319C42A0310FB0CFA0CF90CF80CF30C8B
:10053E00F20CF10CF00C031C962AFC030319B62ADC
:10054E007408F80775080318750FF907760803186D
:10055E00760FFA0777080318770FFB079A2A7408A5
:10056E00F80775080318750FF90776080318760F44
:0C057E00FA0777080318770FFB07080046
:10058A0020001708F100F00116087004F500710840
:10059A00F6000030F6042908F3002808F200F001FA
:1005AA00F1017508F0077608F13D0030F23DF33DA0
:0205BA00080037
:1005BC00FF302000C200FF30C300FF30C400FF300A
:0E05CC00C500F03021009E009D011D140800A6
:1005DA00003020004F06031DF42A01304E06031D89
:1005EA00F92A500825009100003020004F06031D0B
:1005FA00002B02304E06031D052B500825009800DB
:02060A000800E6
:10060C00003020004F06031D0D2B01304E06031D3C
:10061C002A2B250016109610003020005106031DC1
:10062C00192B01305006031D1E2B0E12250016141B
:10063C00003020005106031D252B02305006031DEF
:10064C002A2B8E1225009614003020004F06031D15
:10065C00312B02304E06031D4E2B25001D109D1014
:10066C00003020005106031D3D2B01305006031DA8
:10067C00422B0C1225001D14003020005106031DC6
:10068C00492B02305006031D4E2B8C1225009D1455
:02069C00080054
:10069E0020004E08F4004F08F5005008F6005108EF
:1006AE00F7005208F4025308F53B5408F63B550880
:1006BE00F73B5E08F0005F08F1006008F200610889
:1006CE00F3005A08F0025B08F13B5C08F23B5D0850
:1006DE00F33B8F225608F4005708F5005808F60031
:1006EE005908F7005208F4025308F53B5408F63B3C
:1006FE005508F73BDD215A08F0075B08F13D5C0811
:08070E00F23D5D08F33D080017
:1007160020003208CA003308CB003408CC00350864
:10072600CD002A08CE002B08CF002C08D0002D08BB
:10073600D1004C30D2000430D300D401D5016C3046
:10074600D6000730D700D801D9010130DA00FF30D2
:10075600DB00FF30DC00DD00FF30DE00DF01E00102
:10076600E1014F237008C6007108C7004A08CE0091
:100776004B08CF004C08D0004D08D1004C30D200B9
:100786000430D300D401D5016C30D6000730D70031
:10079600D801D9010130DA00FF30DB00FF30DC0080
:1007A600DD00FF30DE00DF01E001E1014F237008CC
:1007B600C8007108C90080304706F0008030FF3A53
:1007C6007002031DE82B013046020318EE2B0130A0
:1007D600C600FF30C7008030F00080304706700248
:1007E600031DF72B4608FF3C0318FC2BFF30C60001
:1007F600C70180304906F0008030FF3A7002031DC1
:10080600062C0130480203180C2C0130C800FF30BA
:10081600C9008030F000803049067002031D152C97
:100826004808FF3C03181A2CFF30C800C901803065
:100836004706F00080307002031D232C0A30460262
:100846000318322C7F30F000803047067002031DFB
:100856002E2C4608F63C0318322CC601C701803000
:100866004906F00080307002031D3B2C0A30480216
:1008760003184A2C7F30F000803049067002031DB1
:10088600462C4808F63C03184A2CC801C90180309A
:100896004706F00080307002031D532C00304602DC
:1008A600031C692C0130CE000030CF000230D0008E
:1008B6000030D100062301302000CE000030CF00EA
:1008C6004608D0004708D100ED22812C01302000D7
:1008D600CE000030CF000130D0000030D10006231A
:1008E60001302000CE000030CF004608003CD0008A
:1008F6004708031C013ED101D102ED2280302000C1
:100906004906F00080307002031D8B2C003048022F
:10091600031CA12C0230CE000030CF000230D000E4
:100926000030D100062302302000CE000030CF0078
:100936004808D0004908D100ED22B92C0230200029
:10094600CE000030CF000130D0000030D1000623A9
:1009560002302000CE000030CF004808003CD00016
:0E0966004908031C013ED101D102ED22080018
:10097400C5227008F4007108F5007208F6007308C7
:10098400F7002E08F4022F08F53B3008F63B310837
:10099400F73B7708003C031DD92C76081E3C031D49
:1009A400D92C7508843C031DD92C7408803C031C85
:1009B400FE2CC5227008F4007108F5007208F600D8
:1009C4007308F7003608F4023708F53B3808F63B9D
:1009D4003908F73B7708003C031DFA2C76081E3CC7
:1009E400031DFA2C7508843C031DFA2C7408803C02
:1009F400031CFE2CF001002D0130F0000030F1004A
:020A04000800E8
:100A060020009812181698131813181421001114A0
:080A1600200096019701080081
:100A1E0020009C01FF309B0025009E101E10161416
:100A2E009614161196111616FF3091003C30930055
:100A3E009E111E111D149D141D119D111D16FF30AA
:0E0A4E0098003C309A00043020009C00080004
:100A5C0012001E00F003031D2E2DF103031D2E2D7D
:020A6C00080080
:100A6E002200910193019E141E1423008C0101306B
:100A7E008E00DE220C108C100C158C150C128C12A4
:100A8E000E148E140E158E150E128E128B170B174A
:100A9E001316931605302600930005309A000800B1
:100AAE002000A801A90172302100990037250F25D9
:100ABE00032520000C10BA24700871040319782D38
:100ACE000C140130CE000030CF00D001D101ED2248
:100ADE0002302000CE000030CF00D001D101ED2237
:100AEE00622D8B230330FB000830FC007730FD00B5
:100AFE00FD0B7F2DFC0B7F2DFB0B7F2D602D862D8F
:020000040001F9
:04000E00E43F1315A3
:00000001FF
