:04000000883100281B
:1000080070082000A7007108A6007208A5007308F0
:10001800A4007408A3007508A2007608A100803126
:10002800111C1A281110AA0A0319AB0A131E362824
:100038002600131C362821001312931220001810D2
:100048000430260093004E247008C7007108C800C9
:100058007208C9007308CA00131218142100131675
:10006800931660282000131E602821001312931293
:10007800200018100530260093004E247008B200A6
:100088007108B3007208B4007308B5004708B202DB
:100098004808B33B4908B43B4A08B53B4E247008AE
:1000A800C2007108C3007208C4007308C5001814A0
:1000B80013122100131693162000931E7D28260084
:1000C8001A1C7D28210013129312200018100430E6
:1000D80026009A004E247008BE007108BF007208FE
:1000E800C0007308C1009312181421001316931648
:1000F800A7282000931EA72821001312931220007E
:100108001810053026009A004E247008B6007108B1
:10011800B7007208B8007308B9003E08B6023F0875
:10012800B73B4008B83B4108B93B4E247008BA00B9
:100138007108BB007208BC007308BD001814931244
:1001480021001316931620002708F0002608F10056
:100158002508F2002408F3002308F4002208F5001B
:060168002108F600090069
:10016E007408F8027508031C750FF9027608031C53
:10017E00760FFA027708031C770FFB02F30D073098
:10018E00FC00730DF80DF90DFA0DFB0D7408731CC0
:10019E00DE28F8027508031C750FF9027608031C99
:1001AE00760FFA027708031C770FFB02EB28F8078D
:1001BE0075080318750FF90776080318760FFA07F6
:1001CE0077080318770FFB07F30DFC0BC828720D89
:1001DE00F80DF90DFA0DFB0D7408731C0429F802C5
:1001EE007508031C750FF9027608031C760FFA02C8
:1001FE007708031C770FFB021129F80775080318FF
:10020E00750FF90776080318760FFA0777080318A3
:10021E00770FFB07F20D0730FC00720DF80DF90D8C
:10022E00FA0DFB0D7408721C2A29F8027508031CBE
:10023E00750FF9027608031C760FFA027708031C75
:10024E00770FFB023729F80775080318750FF907A2
:10025E0076080318760FFA0777080318770FFB074F
:10026E00F20DFC0B1429710DF80DF90DFA0DFB0DA5
:10027E007408721C5029F8027508031C750FF902D8
:10028E007608031C760FFA027708031C770FFB0221
:10029E005D29F80775080318750FF9077608031816
:1002AE00760FFA0777080318770FFB07F10D073063
:1002BE00FC00710DF80DF90DFA0DFB0D7408711C93
:1002CE007629F8027508031C750FF9027608031CCF
:1002DE00760FFA027708031C770FFB028329F807C3
:1002EE0075080318750FF90776080318760FFA07C5
:1002FE0077080318770FFB07F10DFC0B6029700DC3
:10030E00F80DF90DFA0DFB0D7408711C9C29F802FD
:10031E007508031C750FF9027608031C760FFA0296
:10032E007708031C770FFB02A929F8077508031835
:10033E00750FF90776080318760FFA077708031872
:10034E00770FFB07F00D0730FC00700DF80DF90D5F
:10035E00FA0DFB0D7408701CC229F8027508031CF7
:10036E00750FF9027608031C760FFA027708031C44
:10037E00770FFB02CF29F80775080318750FF907D9
:10038E0076080318760FFA0777080318770FFB071E
:10039E00F00DFC0BAC297018E2297408F8077508EB
:1003AE000318750FF90776080318760FFA07770802
:0803BE000318770FFB0708008C
:1003C600FB09FA09F909F809F80A0319F90A0319E0
:0803D600FA0A0319FB0A0800F2
:1003DE002000620823009100920195131513151445
:0603EE001308F0000800F6
:1003F4007408003A031D132A7508003A031D132AD2
:100404007608003A031D132A7708003A031D132ABD
:10041400FF30F000FF30F100FF30F2007F30F300D6
:10042400AB2A2000FC01F71BFC0AFD01FB01FA01C9
:10043400F901F80173087204710470040319A62AFF
:1004440073087706A000A01BFD09F71F342AF409DE
:10045400F509F609F709F40A0319F50A0319F60A66
:100464000319F70AF31F412AF009F109F209F30904
:10047400F00A0319F10A0319F20A0319F30A7308BB
:100484007704A000A01B622AB720FC1B7F2AFD1F53
:10049400A62AF009F109F209F309F00A0319F10A8D
:1004A4000319F20A0319F30AF809F909FA09FB090D
:1004B400F80A0319F90A0319FA0A0319FB0AA62A06
:1004C400F71F792AF31B732A7308FB007208FA00DA
:1004D4007108F9007008F800F301F201F101F0016C
:1004E400492AF301F201F101F001F00A0034F309A1
:1004F400F209F109F009FC17462AF80A0319F90A66
:100504000319FA0A0319FB0A74087802031D492A1D
:1005140075087902031D492A76087A02031D492ABF
:1005240077087B02031D492AFB01FA01F901F8014E
:10053400F00A0319F10A0319F20A0319F30AF31F63
:10054400492AA0012016FF34A0017C1CAA2AE32119
:04055400003E08005D
:1005580020002230FC00F801F901FA01FB01FC033C
:100568000319E12A0310FB0CFA0CF90CF80CF30C34
:10057800F20CF10CF00C031CB32AFC030319D32A68
:100588007408F80775080318750FF9077608031833
:10059800760FFA0777080318770FFB07B72A74084E
:1005A800F80775080318750FF90776080318760F0A
:0C05B800FA0777080318770FFB0708000C
:1005C4002000F801F9011030FC00710DF80DF90D4F
:1005D4007408F8027508031C750FF9020318F92A48
:1005E4007408F80775080318750FF9070310F00D60
:0805F400F10DFC0BE72A0800E1
:1005FC00FF302000CB00FF30CC00FF30CD00FF30AF
:0E060C00CE00F03021009E009D011D1408005C
:10061A002000E201EF2170082000CF000130E20043
:10062A00EF2170082000C6007008A900A8014F0831
:10063A00A8040030A9040230E200EF21700820006B
:10064A00CF000330E200EF2170082000C6007008D6
:10065A00AF00AE014F08AE040030AF040430E20030
:10066A00EF2170082000CF000530E200EF2170086A
:10067A002000C6007008AD00AC014F08AC04003081
:10068A00AD040630E200EF2170082000CF000730E9
:10069A00E200EF2170082000C6007008B100B00126
:0A06AA004F08B0040030B10408004E
:1006B400FA30F400F50120005E08F0005F08F10054
:1006C400E2227008DE007108DF00E001E1015F084A
:1006D4006102031D6F2B5E08600203188F2B8C14BC
:1006E4000330FB000830FC007730FD00FD0B782B55
:1006F400FC0B782BFB0B782B8C100330FB000830A1
:10070400FC007730FD00FD0B852BFC0B852BFB0BD0
:0C071400852BE00A0319E10A692B08009C
:1007200020005E0823009100920120005F08230052
:1007300093001513951315150B08F0008B13553006
:100740009600AA3096009514F01BA82B8B13A92BAA
:0C0750008B171511951CAD2BAA2B08006F
:10075C00003020005F06031DB52B01305E06031D23
:10076C00BA2B600825009100003020005F06031DA5
:10077C00C12B02305E06031DC62B600825009800B5
:02078C00080063
:10078E00003020005F06031DCE2B01305E06031DD8
:10079E00EB2B250016109610003020006106031D6D
:1007AE00DA2B01306006031DDF2B0E122500161406
:1007BE00003020006106031DE62B02306006031D8B
:1007CE00EB2B8E1225009614003020005F06031DC1
:1007DE00F22B02305E06031D0F2C25001D109D10FE
:1007EE00003020006106031DFE2B01306006031D44
:1007FE00032C0C1225001D14003020006106031D71
:10080E000A2C02306006031D0F2C8C1225009D143D
:02081E000800D0
:1008200021002008F4002108F5002208F600230822
:10083000F7002408F4022508F53B2608F63B2708B4
:10084000F73B3008F0003108F1003208F2003308BD
:10085000F3002C08F0022D08F13B2E08F23B2F0884
:10086000F33BAC2221002808F4002908F5002A08EF
:10087000F6002B08F7002408F4022508F53B2608AB
:10088000F63B2708F73BFA2121002C08F0072D083A
:0C089000F13D2E08F23D2F08F33D08005A
:10089C0020001708F100F00116087004F50071082B
:1008AC00F6000030F6042B08F3002A08F200F001E1
:1008BC00F1017508F0077608F13D0030F23DF33D8B
:0208CC00080022
:1008CE0020003608D4003708D5003808D60039087D
:1008DE00D70032082100A000200033082100A1001B
:1008EE00200034082100A200200035082100A300BA
:1008FE00200028082100A400200029082100A500BE
:10090E00A601A70120002C082100A80020002D0818
:10091E002100A900AA01AB010130AC00FF30AD00EF
:10092E00FF30AE00AF00FF30B000B101B201B30135
:10093E00102470082000D0007108D1005408210046
:10094E00A000200055082100A1002000560821001B
:10095E00A200200057082100A30020002E0821002D
:10096E00A40020002F082100A500A601A701200049
:10097E0030082100A800200031082100A900AA019A
:10098E00AB010130AC00FF30AD00FF30AE00AF0068
:10099E00FF30B000B101B201B30110247008200085
:1009AE00D2007108D30080305106F0008030FF3A3B
:1009BE007002031DE42C013050020318EA2C0130A2
:1009CE00D000FF30D1008030F00080305106700230
:1009DE00031DF32C5008FF3C0318F82CFF30D000F9
:1009EE00D10180305306F0008030FF3A7002031DB3
:1009FE00022D013052020318082D0130D200FF30B3
:100A0E00D3008030F000803053067002031D112D8C
:100A1E005208FF3C0318162DFF30D200D301803050
:100A2E005106F00080307002031D1F2D323050022F
:100A3E0003182E2D7F30F000803051067002031DFA
:100A4E002A2D5008CE3C03182E2DD001D101803016
:100A5E005306F00080307002031D372D32305202E3
:100A6E000318462D7F30F000803053067002031DB0
:100A7E00422D5208CE3C0318462DD201D3018030B0
:100A8E005106F00080307002031D4F2D00305002D1
:100A9E00031C652D0130DE000030DF000230E00067
:100AAE000030E100C72301302000DE000030DF00FF
:100ABE005008E0005108E100AE237D2D01302000EA
:100ACE00DE000030DF000130E0000030E100C7231F
:100ADE0001302000DE000030DF005008003CE00056
:100AEE005108031C013EE101E102AE2380302000DB
:100AFE005306F00080307002031D872D0030520225
:100B0E00031C9D2D0230DE000030DF000230E000BD
:100B1E000030E100C72302302000DE000030DF008D
:100B2E005208E0005308E100AE23B52D023020003C
:100B3E00DE000030DF000130E0000030E100C723AE
:100B4E0002302000DE000030DF005208003CE000E2
:0E0B5E005308031C013EE101E102AE23080032
:100B6C004E247008F4007108F5007208F600730842
:100B7C00F7004208F4024308F53B4408F63B4508ED
:100B8C00F73B7708003C031DD52D76081E3C031D52
:100B9C00D52D7508843C031DD52D7408803C031C91
:100BAC00FA2D4E247008F4007108F5007208F60056
:100BBC007308F7003A08F4023B08F53B3C08F63B97
:100BCC003D08F73B7708003C031DF62D76081E3CCC
:100BDC00031DF62D7508843C031DF62D7408803C0E
:100BEC00031CFA2DF001FC2D0130F0000030F10057
:020BFC000800EF
:100BFE0020302000D4004E30D5002030D6004E30AC
:100C0E00D700D001D101D201D3014E247008DA00F1
:100C1E007108DB007208DC007308DD008C144E24B2
:100C2E007008F4007108F5007208F6007308F700FA
:100C3E005A08F4025B08F53B5C08F63B5D08F73B8F
:100C4E0000307702031D352E1E307602031D352E21
:100C5E0084307502031D352E803074020318582E11
:100C6E003208D8003308D90055083302031D412E2F
:100C7E00540832020318472E5808D4005908D500DC
:100C8E003608D8003708D90057083702031D512EF1
:100C9E00560836020318572E5808D6005908D700A2
:100CAE00162EFF305405F3007308CF005508F000E0
:100CBE00F101FF307005C600DE017308DF009023DE
:100CCE001A30FC00F830FD00FD0B6B2EFC0B6B2E6A
:100CDE00000001302000DE004608DF0090231A30AD
:100CEE00FC00F830FD00FD0B7A2EFC0B7A2E000076
:100CFE00FF3020005605F3007308CF005708F000B0
:100D0E00F101FF307005C6000230DE007308DF000F
:100D1E0090231A30FC00F830FD00FD0B942EFC0BD6
:100D2E00942E000003302000DE004608DF009023E2
:100D3E001A30FC00F830FD00FD0BA32EFC0BA32E89
:100D4E00000040302000DE000630DF005A234E2423
:100D5E007008DA007108DB007208DC007308DD0031
:100D6E008C144E247008F4007108F5007208F60019
:100D7E007308F7005A08F4025B08F53B5C08F63B73
:100D8E005D08F73B00307702031DD72E1E3076022A
:100D9E00031DD72E84307502031DD72E80307402AA
:100DAE000318FB2E20003208D8003308D900330870
:100DBE005102031DE42E320850020318EA2E580881
:100DCE00D0005908D1003608D8003708D9003708A6
:100DDE005302031DF42E360852020318FA2E580839
:100DEE00D2005908D300B82E2000FF305005F30072
:100DFE007308CF005108F000F101FF307005C600F6
:100E0E000430DE007308DF0090231A30FC00F83047
:100E1E00FD00FD0B102FFC0B102F000005302000E5
:100E2E00DE004608DF0090231A30FC00F830FD008B
:100E3E00FD0B1F2FFC0B1F2F0000FF302000520553
:100E4E00F3007308CF005308F000F101FF30700576
:100E5E00C6000630DE007308DF0090231A30FC0057
:100E6E00F830FD00FD0B392FFC0B392F0000073039
:100E7E002000DE004608DF0090231A30FC00F83018
:100E8E00FD00FD0B482FFC0B482F000040302000CA
:0E0E9E00DE000630DF005A238C100D23080002
:100EAC0012001E00F003031D562FF103031D562FD5
:020EBC0008002C
:100EBE0020009C01FF309B0025009E101E10161472
:100ECE009614161196111616FF3091003C309300B1
:100EDE009E111E111D149D141D119D111D16FF3006
:0E0EEE0098003C309A00043020009C00080060
:100EFC0020009812181698131813181421001114A6
:080F0C00200096019701080086
:100F14002200910193019E141E1423008C010130C0
:100F24008E00FE220C108C100C158C150C128C12D9
:100F34000E148E140E158E150E128E128B170B179F
:100F44001316931605302600930005309A00080006
:101000004C302000A8000430A900AA01AB016C30CC
:10101000AC000730AD004C30AE000430AF006C3097
:10102000B0000730B10072302100990080318A276A
:10103000883180315F27883180317E2788310430C4
:10104000FB000C30FC003330FD00FD0B2528FC0BB1
:101050002528FB0B2528000000008C193228803140
:10106000FF25883120000C108031B62588317008AA
:101070007104031950280C140130DE000030DF0029
:10108000E001E1018031AE23883102302000DE0032
:101090000030DF00E001E1018031AE2388313428E7
:0A10A000803167248831322854287B
:020000040001F9
:04000E00A4391315E9
:00000001FF
