:02000000552D7C
:1000080070082000A7007108A6007208A5007308F0
:10001800A4007408A3007508A2007608A100803126
:10002800111C1A281110A80A0319A90A131E32282C
:100038002600131C3228200013122100131204304A
:1000480026009300C5227008BE007108BF00720820
:10005800C0007308C1002100131657282000131E82
:100068005728131221001312053026009300C522C9
:100078007008AA007108AB007208AC007308AD00E4
:100088003E08AA023F08AB3B4008AC3B4108AD3BE9
:1000980021001316C5227008AE007108AF0072085F
:1000A800B0007308B1002000931E702826001A1CA7
:1000B80070282000931221009312043026009A0021
:1000C800C5227008BA007108BB007208BC0073082A
:1000D800BD002100931695282000931E95289312A1
:1000E80021009312053026009A00C5227008B2003C
:1000F8007108B3007208B4007308B5003A08B20278
:100108003B08B33B3C08B43B3D08B53B2100931684
:10011800C5227008B6007108B7007208B8007308E5
:10012800B90020002708F0002608F1002508F20091
:100138002408F3002308F4002208F5002108F6003B
:020148000900AC
:10014A007408F8027508031C750FF9027608031C77
:10015A00760FFA027708031C770FFB02F30D0730BC
:10016A00FC00730DF80DF90DFA0DFB0D7408731CE4
:10017A00CC28F8027508031C750FF9027608031CCF
:10018A00760FFA027708031C770FFB02D928F807C3
:10019A0075080318750FF90776080318760FFA071A
:1001AA0077080318770FFB07F30DFC0BB628720DBF
:1001BA00F80DF90DFA0DFB0D7408731CF228F802FC
:1001CA007508031C750FF9027608031C760FFA02EC
:1001DA007708031C770FFB02FF28F8077508031836
:1001EA00750FF90776080318760FFA0777080318C8
:1001FA00770FFB07F20D0730FC00720DF80DF90DB1
:10020A00FA0DFB0D7408721C1829F8027508031CF4
:10021A00750FF9027608031C760FFA027708031C99
:10022A00770FFB022529F80775080318750FF907D8
:10023A0076080318760FFA0777080318770FFB0773
:10024A00F20DFC0B0229710DF80DF90DFA0DFB0DDB
:10025A007408721C3E29F8027508031C750FF9020E
:10026A007608031C760FFA027708031C770FFB0245
:10027A004B29F80775080318750FF907760803184C
:10028A00760FFA0777080318770FFB07F10D073087
:10029A00FC00710DF80DF90DFA0DFB0D7408711CB7
:1002AA006429F8027508031C750FF9027608031C05
:1002BA00760FFA027708031C770FFB027129F807F9
:1002CA0075080318750FF90776080318760FFA07E9
:1002DA0077080318770FFB07F10DFC0B4E29700DF9
:1002EA00F80DF90DFA0DFB0D7408711C8A29F80234
:1002FA007508031C750FF9027608031C760FFA02BB
:10030A007708031C770FFB029729F807750803186B
:10031A00750FF90776080318760FFA077708031896
:10032A00770FFB07F00D0730FC00700DF80DF90D83
:10033A00FA0DFB0D7408701CB029F8027508031C2D
:10034A00750FF9027608031C760FFA027708031C68
:10035A00770FFB02BD29F80775080318750FF9070F
:10036A0076080318760FFA0777080318770FFB0742
:10037A00F00DFC0B9A297018D0297408F807750833
:10038A000318750FF90776080318760FFA07770826
:08039A000318770FFB070800B0
:1003A200FB09FA09F909F809F80A0319F90A031904
:0803B200FA0A0319FB0A080016
:1003BA007408003A031DF6297508003A031DF62948
:1003CA007608003A031DF6297708003A031DF62934
:1003DA00FF30F000FF30F100FF30F2007F30F30011
:1003EA008E2A2000FC01F71BFC0AFD01FB01FA0121
:1003FA00F901F80173087204710470040319892A57
:10040A0073087706A000A01BFD09F71F172AF40935
:10041A00F509F609F709F40A0319F50A0319F60AA0
:10042A000319F70AF31F242AF009F109F209F3095B
:10043A00F00A0319F10A0319F20A0319F30A7308F5
:10044A007704A000A01B452AA520FC1B622AFD1FD9
:10045A00892AF009F109F209F309F00A0319F10AE4
:10046A000319F20A0319F30AF809F909FA09FB0947
:10047A00F80A0319F90A0319FA0A0319FB0A892A5D
:10048A00F71F5C2AF31B562A7308FB007208FA004E
:10049A007108F9007008F800F301F201F101F001A6
:1004AA002C2AF301F201F101F001F00A0034F309F8
:1004BA00F209F109F009FC17292AF80A0319F90ABD
:1004CA000319FA0A0319FB0A74087802031D2C2A75
:1004DA0075087902031D2C2A76087A02031D2C2A34
:1004EA0077087B02031D2C2AFB01FA01F901F801A6
:1004FA00F00A0319F10A0319F20A0319F30AF31F9E
:10050A002C2AA0012016FF34A0017C1C8D2AD1219F
:04051A00003E080097
:10051E0020002230FC00F801F901FA01FB01FC0376
:10052E000319C42A0310FB0CFA0CF90CF80CF30C8B
:10053E00F20CF10CF00C031C962AFC030319B62ADC
:10054E007408F80775080318750FF907760803186D
:10055E00760FFA0777080318770FFB079A2A7408A5
:10056E00F80775080318750FF90776080318760F44
:0C057E00FA0777080318770FFB07080046
:10058A0020001708F100F00116087004F500710840
:10059A00F6000030F6042908F3002808F200F001FA
:1005AA00F1017508F0077608F13D0030F23DF33DA0
:0205BA00080037
:1005BC00FF302000C200FF30C300FF30C400FF300A
:0E05CC00C500F03021009E009D011D140800A6
:1005DA00003020004D06031DF42A01304C06031D8D
:1005EA00F92A4E0825009100003020004D06031D0F
:1005FA00002B02304C06031D052B4E0825009800DF
:02060A000800E6
:10060C00003020004D06031D0D2B01304C06031D40
:10061C002A2B250016109610003020004F06031DC3
:10062C00192B01304E06031D1E2B0E12250016141D
:10063C00003020004F06031D252B02304E06031DF3
:10064C002A2B8E1225009614003020004D06031D17
:10065C00312B02304C06031D4E2B25001D109D1016
:10066C00003020004F06031D3D2B01304E06031DAC
:10067C00422B0C1225001D14003020004F06031DC8
:10068C00492B02304E06031D4E2B8C1225009D1457
:02069C00080054
:10069E0020004C08F4004D08F5004E08F6004F08F7
:1006AE00F7005008F4025108F53B5208F63B530888
:1006BE00F73B5C08F0005D08F1005E08F2005F0891
:1006CE00F3005808F0025908F13B5A08F23B5B0858
:1006DE00F33B8F225408F4005508F5005608F60037
:1006EE005708F7005008F4025108F53B5208F63B44
:1006FE005308F73BDD215808F0075908F13D5A0819
:08070E00F23D5B08F33D080019
:1007160020003208CA003308CB002A08CC002B0878
:10072600CD00CE01CF014C30D0000430D100D20133
:10073600D3016C30D4000730D500D601D701013083
:10074600D800FF30D900FF30DA00DB00FF30DC00D4
:10075600DD01DE01DF014F234A08CC004B08CD0046
:10076600CE01CF014C30D0000430D100D201D301EC
:100776006C30D4000730D500D601D7010130D8003F
:10078600FF30D900FF30DA00DB00FF30DC00DD018E
:10079600DE01DF014F237008CA007108CB008030EC
:1007A6004706F0008030FF3A7002031DDC2B013053
:1007B60046020318E22B0130C600FF30C700803026
:1007C600F000803047067002031DEB2B4608FF3C05
:1007D6000318F02BFF30C600C70180304906F00031
:1007E6008030FF3A7002031DFA2B013048020318CD
:1007F600002C0130C800FF30C9008030F000803086
:1008060049067002031D092C4808FF3C03180E2CEC
:10081600FF30C800C90180304706F0008030700202
:10082600031D172C0A3046020318262C7F30F000D1
:10083600803047067002031D222C4608F63C03183A
:10084600262CC601C70180304906F00080307002B0
:10085600031D2F2C0A30480203183E2C7F30F0006F
:10086600803049067002031D3A2C4808F63C0318EE
:100876003E2CC801C90180304706F0008030700266
:10088600031D472C00304602031C5D2C0130CC00B2
:100896000030CD000230CE000030CF0006230130FC
:1008A6002000CC000030CD004608CE004708CF001F
:1008B600ED22792C20004608003CC6004708031CA0
:1008C600013EC701C7020130CC000030CD00013027
:1008D600CE000030CF00062301302000CC000030CF
:1008E600CD004608CE004708CF00ED22803020001C
:1008F6004906F00080307002031D832C0030480248
:10090600031C992C0230CC000030CD000230CE0002
:100916000030CF00062302302000CC000030CD008E
:100926004808CE004908CF00ED22B52C2000480823
:10093600003CC8004908031C013EC901C902023037
:10094600CC000030CD000130CE000030CF000623B1
:1009560002302000CC000030CD004808CE00490807
:06096600CF00ED220800A5
:10096C00C5227008F4007108F5007208F6007308CF
:10097C00F7002E08F4022F08F53B3008F63B31083F
:10098C00F73B7708003C031DD52C76084C3C031D27
:10099C00D52C75084B3C031DD52C7408403C031C0E
:1009AC00F92CC5227008F4007108F5007208F600E5
:1009BC007308F7003608F4023708F53B3808F63BA5
:1009CC003908F73B7708003C031DF62C76084C3CA5
:1009DC00031DF62C75084B3C031DF62C7408403C8B
:1009EC00031CF92CFE2C0130F0000030F100002D1E
:0609FC00F001F10108000A
:100A020020009812181698131813181421001114A4
:080A1200200096019701080085
:100A1A0020009C01FF309B0025009E101E1016141A
:100A2A009614161196111616FF3091003C30930059
:100A3A009E111E111D149D141D119D111D16FF30AE
:0E0A4A0098003C309A00043020009C00080008
:100A580012001E00F003031D2C2DF103031D2C2D85
:020A6800080084
:100A6A002200910193019E141E1423008C0101306F
:100A7A008E00DE220C108C100C158C150C128C12A8
:100A8A000E148E140E158E150E128E128B170B174E
:100A9A001316931605302600930005309A000800B5
:100AAA002000A801A90172302100990035250D25E1
:100ABA00012520000C10B624700871040319762D44
:100ACA000C140130CC000030CD00CE01CF01ED2254
:100ADA0002302000CC000030CD00CE01CF01ED2243
:100AEA00602D8B230330FB000830FC007730FD00BB
:100AFA00FD0B7D2DFC0B7D2DFB0B7D2D5E2D842D9D
:020000040001F9
:04000E00E43F1315A3
:00000001FF
